{
  "contractName": "GaslessForwarder",
  "abi": [
    {
      "inputs": [
        {
          "internalType": "address",
          "name": "",
          "type": "address"
        }
      ],
      "name": "nonces",
      "outputs": [
        {
          "internalType": "uint256",
          "name": "",
          "type": "uint256"
        }
      ],
      "stateMutability": "view",
      "type": "function"
    },
    {
      "inputs": [
        {
          "internalType": "address",
          "name": "user",
          "type": "address"
        },
        {
          "internalType": "address",
          "name": "target",
          "type": "address"
        },
        {
          "internalType": "bytes",
          "name": "data",
          "type": "bytes"
        },
        {
          "internalType": "bytes",
          "name": "signature",
          "type": "bytes"
        }
      ],
      "name": "execute",
      "outputs": [],
      "stateMutability": "nonpayable",
      "type": "function"
    }
  ],
  "bytecode": "0x608060405234801561001057600080fd5b50610734806100206000396000f3fe608060405234801561001057600080fd5b50600436106100365760003560e01c80636a6aac641461003b5780637ecebe0014610050575b600080fd5b61004e6100493660046104c5565b610079565b005b61006361005e3660046104a4565b6101f2565b60405161007091906106ce565b60405180910390f35b6001600160a01b03861660009081526020819052604081208054908261009e836106d7565b91905055905060008787878785466040516020016100c196959493929190610553565b60405160208183030381529060405280519060200120905060006100e482610204565b9050600061012a86868080601f01602080910402602001604051908101604052809392919081815260200183838082843760009201919091525086939250506102379050565b9050896001600160a01b0316816001600160a01b0316146101665760405162461bcd60e51b815260040161015d90610635565b60405180910390fd5b6000896001600160a01b03168989604051610182929190610599565b6000604051808303816000865af19150503d80600081146101bf576040519150601f19603f3d011682016040523d82523d6000602084013e6101c4565b606091505b50509050806101e55760405162461bcd60e51b815260040161015d906106a2565b5050505050505050505050565b60006020819052908152604090205481565b7f19457468657265756d205369676e6564204d6573736167653a0a3332000000006000908152601c91909152603c902090565b6000806000610246858561025b565b91509150610253816102a1565b509392505050565b6000808251604114156102925760208301516040840151606085015160001a61028687828585610391565b9450945050505061029a565b506000905060025b9250929050565b60008160048111156102c357634e487b7160e01b600052602160045260246000fd5b14156102ce5761038e565b60018160048111156102f057634e487b7160e01b600052602160045260246000fd5b141561030e5760405162461bcd60e51b815260040161015d906105c7565b600281600481111561033057634e487b7160e01b600052602160045260246000fd5b141561034e5760405162461bcd60e51b815260040161015d906105fe565b600381600481111561037057634e487b7160e01b600052602160045260246000fd5b141561038e5760405162461bcd60e51b815260040161015d90610660565b50565b6000807f7fffffffffffffffffffffffffffffff5d576e7357a4501ddfe92f46681b20a08311156103c8575060009050600361043f565b6000600187878787604051600081526020016040526040516103ed94939291906105a9565b6020604051602081039080840390855afa15801561040f573d6000803e3d6000fd5b5050604051601f1901519150506001600160a01b0381166104385760006001925092505061043f565b9150600090505b94509492505050565b80356001600160a01b038116811461045f57600080fd5b919050565b60008083601f840112610475578182fd5b50813567ffffffffffffffff81111561048c578182fd5b60208301915083602082850101111561029a57600080fd5b6000602082840312156104b5578081fd5b6104be82610448565b9392505050565b600080600080600080608087890312156104dd578182fd5b6104e687610448565b95506104f460208801610448565b9450604087013567ffffffffffffffff80821115610510578384fd5b61051c8a838b01610464565b90965094506060890135915080821115610534578384fd5b5061054189828a01610464565b979a9699509497509295939492505050565b60006bffffffffffffffffffffffff19808960601b168352808860601b166014840152508486602884013750602893019283019190915260488201526068019392505050565b6000828483379101908152919050565b93845260ff9290921660208401526040830152606082015260800190565b60208082526018908201527f45434453413a20696e76616c6964207369676e61747572650000000000000000604082015260600190565b6020808252601f908201527f45434453413a20696e76616c6964207369676e6174757265206c656e67746800604082015260600190565b602080825260119082015270496e76616c6964207369676e617475726560781b604082015260600190565b60208082526022908201527f45434453413a20696e76616c6964207369676e6174757265202773272076616c604082015261756560f01b606082015260800190565b602080825260129082015271151c985b9cd858dd1a5bdb8819985a5b195960721b604082015260600190565b90815260200190565b60006000198214156106f757634e487b7160e01b81526011600452602481fd5b506001019056fea2646970667358221220b2f149d18ae0bc69ba5b5884e4310c91ef9352a4e345d47dd0d877389333681b64736f6c63430008000033",
  "immutableReferences": {},
  "source": "// SPDX-License-Identifier: MIT\npragma solidity ^0.8.0;\n\nimport \"@openzeppelin/contracts/utils/cryptography/ECDSA.sol\";\n\ncontract GaslessForwarder {\n    using ECDSA for bytes32;\n    \n    mapping(address => uint256) public nonces;\n\n    function execute(\n        address user,\n        address target,\n        bytes calldata data,\n        bytes calldata signature\n    ) external {\n        // Verify nonce\n        uint256 currentNonce = nonces[user]++;\n        \n        // Create message hash\n        bytes32 messageHash = keccak256(\n            abi.encodePacked(\n                user,\n                target,\n                data,\n                currentNonce,\n                block.chainid\n            )\n        );\n        \n        // Verify signature\n        bytes32 ethSignedMessageHash = messageHash.toEthSignedMessageHash();\n        address signer = ethSignedMessageHash.recover(signature);\n        require(signer == user, \"Invalid signature\");\n        \n        // Execute transaction\n        (bool success, ) = target.call(data);\n        require(success, \"Transaction failed\");\n    }\n}",
  "sourcePath": "/home/asde/Documents/hackiitk/gasless/contracts/contracts/GaslessForwarder.sol",
  "compiler": {
    "name": "solc",
    "version": "0.8.0+commit.c7dfd78e.Emscripten.clang"
  },
  "schemaVersion": "3.4.16",
  "updatedAt": "2025-01-25T04:52:15.407Z",
  "devdoc": {
    "kind": "dev",
    "methods": {},
    "version": 1
  },
  "userdoc": {
    "kind": "user",
    "methods": {},
    "version": 1
  }
}