{
  "_format": "hh-sol-artifact-1",
  "contractName": "GaslessForwarder",
  "sourceName": "contracts/GaslessForwarder.sol",
  "abi": [
    {
      "inputs": [],
      "stateMutability": "nonpayable",
      "type": "constructor"
    },
    {
      "inputs": [],
      "name": "InvalidShortString",
      "type": "error"
    },
    {
      "inputs": [
        {
          "internalType": "string",
          "name": "str",
          "type": "string"
        }
      ],
      "name": "StringTooLong",
      "type": "error"
    },
    {
      "anonymous": false,
      "inputs": [],
      "name": "EIP712DomainChanged",
      "type": "event"
    },
    {
      "inputs": [],
      "name": "eip712Domain",
      "outputs": [
        {
          "internalType": "bytes1",
          "name": "fields",
          "type": "bytes1"
        },
        {
          "internalType": "string",
          "name": "name",
          "type": "string"
        },
        {
          "internalType": "string",
          "name": "version",
          "type": "string"
        },
        {
          "internalType": "uint256",
          "name": "chainId",
          "type": "uint256"
        },
        {
          "internalType": "address",
          "name": "verifyingContract",
          "type": "address"
        },
        {
          "internalType": "bytes32",
          "name": "salt",
          "type": "bytes32"
        },
        {
          "internalType": "uint256[]",
          "name": "extensions",
          "type": "uint256[]"
        }
      ],
      "stateMutability": "view",
      "type": "function"
    },
    {
      "inputs": [
        {
          "components": [
            {
              "internalType": "address",
              "name": "user",
              "type": "address"
            },
            {
              "internalType": "address",
              "name": "target",
              "type": "address"
            },
            {
              "internalType": "bytes",
              "name": "data",
              "type": "bytes"
            },
            {
              "internalType": "uint256",
              "name": "nonce",
              "type": "uint256"
            },
            {
              "internalType": "uint256",
              "name": "deadline",
              "type": "uint256"
            }
          ],
          "internalType": "struct GaslessForwarder.ForwardRequest",
          "name": "req",
          "type": "tuple"
        },
        {
          "internalType": "bytes",
          "name": "signature",
          "type": "bytes"
        }
      ],
      "name": "execute",
      "outputs": [],
      "stateMutability": "nonpayable",
      "type": "function"
    },
    {
      "inputs": [
        {
          "internalType": "address",
          "name": "",
          "type": "address"
        }
      ],
      "name": "nonces",
      "outputs": [
        {
          "internalType": "uint256",
          "name": "",
          "type": "uint256"
        }
      ],
      "stateMutability": "view",
      "type": "function"
    }
  ],
  "bytecode": "0x61016060405234801561001157600080fd5b506040518060400160405280601081526020017f4761736c657373466f72776172646572000000000000000000000000000000008152506040518060400160405280600181526020017f310000000000000000000000000000000000000000000000000000000000000081525061009260008361012d60201b90919060201c565b61012081815250506100ae60018261012d60201b90919060201c565b6101408181525050818051906020012060e08181525050808051906020012061010081815250504660a081815250506100eb61017d60201b60201c565b608081815250503073ffffffffffffffffffffffffffffffffffffffff1660c08173ffffffffffffffffffffffffffffffffffffffff16815250505050610766565b600060208351101561014f57610148836101d860201b60201c565b9050610177565b8261015f8361024060201b60201c565b600001908161016e919061049a565b5060ff60001b90505b92915050565b60007f8b73c3c69bb8fe3d512ecc4cf759cc79239f7b179b0ffacaa9a75d522b39400f60e0516101005146306040516020016101bd9594939291906105d5565b60405160208183030381529060405280519060200120905090565b600080829050601f8151111561022557826040517f305a27a900000000000000000000000000000000000000000000000000000000815260040161021c91906106ad565b60405180910390fd5b805181610231906106ff565b60001c1760001b915050919050565b6000819050919050565b600081519050919050565b7f4e487b7100000000000000000000000000000000000000000000000000000000600052604160045260246000fd5b7f4e487b7100000000000000000000000000000000000000000000000000000000600052602260045260246000fd5b600060028204905060018216806102cb57607f821691505b6020821081036102de576102dd610284565b5b50919050565b60008190508160005260206000209050919050565b60006020601f8301049050919050565b600082821b905092915050565b6000600883026103467fffffffffffffffffffffffffffffffffffffffffffffffffffffffffffffffff82610309565b6103508683610309565b95508019841693508086168417925050509392505050565b6000819050919050565b6000819050919050565b600061039761039261038d84610368565b610372565b610368565b9050919050565b6000819050919050565b6103b18361037c565b6103c56103bd8261039e565b848454610316565b825550505050565b600090565b6103da6103cd565b6103e58184846103a8565b505050565b5b81811015610409576103fe6000826103d2565b6001810190506103eb565b5050565b601f82111561044e5761041f816102e4565b610428846102f9565b81016020851015610437578190505b61044b610443856102f9565b8301826103ea565b50505b505050565b600082821c905092915050565b600061047160001984600802610453565b1980831691505092915050565b600061048a8383610460565b9150826002028217905092915050565b6104a38261024a565b67ffffffffffffffff8111156104bc576104bb610255565b5b6104c682546102b3565b6104d182828561040d565b600060209050601f83116001811461050457600084156104f2578287015190505b6104fc858261047e565b865550610564565b601f198416610512866102e4565b60005b8281101561053a57848901518255600182019150602085019450602081019050610515565b868310156105575784890151610553601f891682610460565b8355505b6001600288020188555050505b505050505050565b6000819050919050565b61057f8161056c565b82525050565b61058e81610368565b82525050565b600073ffffffffffffffffffffffffffffffffffffffff82169050919050565b60006105bf82610594565b9050919050565b6105cf816105b4565b82525050565b600060a0820190506105ea6000830188610576565b6105f76020830187610576565b6106046040830186610576565b6106116060830185610585565b61061e60808301846105c6565b9695505050505050565b600082825260208201905092915050565b60005b8381101561065757808201518184015260208101905061063c565b60008484015250505050565b6000601f19601f8301169050919050565b600061067f8261024a565b6106898185610628565b9350610699818560208601610639565b6106a281610663565b840191505092915050565b600060208201905081810360008301526106c78184610674565b905092915050565b600081519050919050565b6000819050602082019050919050565b60006106f6825161056c565b80915050919050565b600061070a826106cf565b82610714846106da565b905061071f816106ea565b9250602082101561075f5761075a7fffffffffffffffffffffffffffffffffffffffffffffffffffffffffffffffff83602003600802610309565b831692505b5050919050565b60805160a05160c05160e0516101005161012051610140516116976107bf60003960006101150152600060e101526000610aa601526000610a8501526000610765015260006107bb015260006107e401526116976000f3fe608060405234801561001057600080fd5b50600436106100415760003560e01c80637ecebe001461004657806384b0196e14610076578063bf2b6b351461009a575b600080fd5b610060600480360381019061005b9190610c40565b6100b6565b60405161006d9190610c86565b60405180910390f35b61007e6100ce565b6040516100919796959493929190610e52565b60405180910390f35b6100b460048036038101906100af9190610f5f565b6101d0565b005b60026020528060005260406000206000915090505481565b60006060806000806000606061010e60007f00000000000000000000000000000000000000000000000000000000000000006105fc90919063ffffffff16565b61014260017f00000000000000000000000000000000000000000000000000000000000000006105fc90919063ffffffff16565b46306000801b600067ffffffffffffffff81111561016357610162610fdb565b5b6040519080825280602002602001820160405280156101915781602001602082028036833780820191505090505b507f0f00000000000000000000000000000000000000000000000000000000000000959493929190965096509650965096509650965090919293949596565b3073ffffffffffffffffffffffffffffffffffffffff168360200160208101906101fa9190610c40565b73ffffffffffffffffffffffffffffffffffffffff1603610250576040517f08c379a000000000000000000000000000000000000000000000000000000000815260040161024790611056565b60405180910390fd5b4283608001351015610297576040517f08c379a000000000000000000000000000000000000000000000000000000000815260040161028e906110c2565b60405180910390fd5b6000600260008560000160208101906102b09190610c40565b73ffffffffffffffffffffffffffffffffffffffff1673ffffffffffffffffffffffffffffffffffffffff16815260200190815260200160002054905080846060013514610333576040517f08c379a000000000000000000000000000000000000000000000000000000000815260040161032a9061112e565b60405180910390fd5b600181610340919061117d565b600260008660000160208101906103579190610c40565b73ffffffffffffffffffffffffffffffffffffffff1673ffffffffffffffffffffffffffffffffffffffff1681526020019081526020016000208190555060007f936113c2065b82b53ec6f1612c688637032a261d2cf6a129c2ea556c9bc313928560000160208101906103cb9190610c40565b8660200160208101906103de9190610c40565b8780604001906103ee91906111c0565b6040516103fc929190611262565b6040518091039020886060013589608001356040516020016104239695949392919061127b565b6040516020818303038152906040528051906020012090506000610446826106ac565b905060006104a186868080601f016020809104026020016040519081016040528093929190818152602001838380828437600081840152601f19601f82011690508083019250505050505050836106c690919063ffffffff16565b90508660000160208101906104b69190610c40565b73ffffffffffffffffffffffffffffffffffffffff168173ffffffffffffffffffffffffffffffffffffffff1614610523576040517f08c379a000000000000000000000000000000000000000000000000000000000815260040161051a90611328565b60405180910390fd5b60008760200160208101906105389190610c40565b73ffffffffffffffffffffffffffffffffffffffff1688806040019061055e91906111c0565b60405161056c929190611262565b6000604051808303816000865af19150503d80600081146105a9576040519150601f19603f3d011682016040523d82523d6000602084013e6105ae565b606091505b50509050806105f2576040517f08c379a00000000000000000000000000000000000000000000000000000000081526004016105e990611394565b60405180910390fd5b5050505050505050565b606060ff60001b831461061957610612836106ed565b90506106a6565b818054610625906113e3565b80601f0160208091040260200160405190810160405280929190818152602001828054610651906113e3565b801561069e5780601f106106735761010080835404028352916020019161069e565b820191906000526020600020905b81548152906001019060200180831161068157829003601f168201915b505050505090505b92915050565b60006106bf6106b9610761565b83610818565b9050919050565b60008060006106d58585610859565b915091506106e2816108aa565b819250505092915050565b606060006106fa83610a10565b90506000602067ffffffffffffffff81111561071957610718610fdb565b5b6040519080825280601f01601f19166020018201604052801561074b5781602001600182028036833780820191505090505b5090508181528360208201528092505050919050565b60007f000000000000000000000000000000000000000000000000000000000000000073ffffffffffffffffffffffffffffffffffffffff163073ffffffffffffffffffffffffffffffffffffffff161480156107dd57507f000000000000000000000000000000000000000000000000000000000000000046145b1561080a577f00000000000000000000000000000000000000000000000000000000000000009050610815565b610812610a60565b90505b90565b60006040517f190100000000000000000000000000000000000000000000000000000000000081528360028201528260228201526042812091505092915050565b600080604183510361089a5760008060006020860151925060408601519150606086015160001a905061088e87828585610af6565b945094505050506108a3565b60006002915091505b9250929050565b600060048111156108be576108bd611414565b5b8160048111156108d1576108d0611414565b5b0315610a0d57600160048111156108eb576108ea611414565b5b8160048111156108fe576108fd611414565b5b0361093e576040517f08c379a00000000000000000000000000000000000000000000000000000000081526004016109359061148f565b60405180910390fd5b6002600481111561095257610951611414565b5b81600481111561096557610964611414565b5b036109a5576040517f08c379a000000000000000000000000000000000000000000000000000000000815260040161099c906114fb565b60405180910390fd5b600360048111156109b9576109b8611414565b5b8160048111156109cc576109cb611414565b5b03610a0c576040517f08c379a0000000000000000000000000000000000000000000000000000000008152600401610a039061158d565b60405180910390fd5b5b50565b60008060ff8360001c169050601f811115610a57576040517fb3512b0c00000000000000000000000000000000000000000000000000000000815260040160405180910390fd5b80915050919050565b60007f8b73c3c69bb8fe3d512ecc4cf759cc79239f7b179b0ffacaa9a75d522b39400f7f00000000000000000000000000000000000000000000000000000000000000007f00000000000000000000000000000000000000000000000000000000000000004630604051602001610adb9594939291906115ad565b60405160208183030381529060405280519060200120905090565b6000807f7fffffffffffffffffffffffffffffff5d576e7357a4501ddfe92f46681b20a08360001c1115610b31576000600391509150610bcf565b600060018787878760405160008152602001604052604051610b56949392919061161c565b6020604051602081039080840390855afa158015610b78573d6000803e3d6000fd5b505050602060405103519050600073ffffffffffffffffffffffffffffffffffffffff168173ffffffffffffffffffffffffffffffffffffffff1603610bc657600060019250925050610bcf565b80600092509250505b94509492505050565b600080fd5b600080fd5b600073ffffffffffffffffffffffffffffffffffffffff82169050919050565b6000610c0d82610be2565b9050919050565b610c1d81610c02565b8114610c2857600080fd5b50565b600081359050610c3a81610c14565b92915050565b600060208284031215610c5657610c55610bd8565b5b6000610c6484828501610c2b565b91505092915050565b6000819050919050565b610c8081610c6d565b82525050565b6000602082019050610c9b6000830184610c77565b92915050565b60007fff0000000000000000000000000000000000000000000000000000000000000082169050919050565b610cd681610ca1565b82525050565b600081519050919050565b600082825260208201905092915050565b60005b83811015610d16578082015181840152602081019050610cfb565b60008484015250505050565b6000601f19601f8301169050919050565b6000610d3e82610cdc565b610d488185610ce7565b9350610d58818560208601610cf8565b610d6181610d22565b840191505092915050565b610d7581610c02565b82525050565b6000819050919050565b610d8e81610d7b565b82525050565b600081519050919050565b600082825260208201905092915050565b6000819050602082019050919050565b610dc981610c6d565b82525050565b6000610ddb8383610dc0565b60208301905092915050565b6000602082019050919050565b6000610dff82610d94565b610e098185610d9f565b9350610e1483610db0565b8060005b83811015610e45578151610e2c8882610dcf565b9750610e3783610de7565b925050600181019050610e18565b5085935050505092915050565b600060e082019050610e67600083018a610ccd565b8181036020830152610e798189610d33565b90508181036040830152610e8d8188610d33565b9050610e9c6060830187610c77565b610ea96080830186610d6c565b610eb660a0830185610d85565b81810360c0830152610ec88184610df4565b905098975050505050505050565b600080fd5b600060a08284031215610ef157610ef0610ed6565b5b81905092915050565b600080fd5b600080fd5b600080fd5b60008083601f840112610f1f57610f1e610efa565b5b8235905067ffffffffffffffff811115610f3c57610f3b610eff565b5b602083019150836001820283011115610f5857610f57610f04565b5b9250929050565b600080600060408486031215610f7857610f77610bd8565b5b600084013567ffffffffffffffff811115610f9657610f95610bdd565b5b610fa286828701610edb565b935050602084013567ffffffffffffffff811115610fc357610fc2610bdd565b5b610fcf86828701610f09565b92509250509250925092565b7f4e487b7100000000000000000000000000000000000000000000000000000000600052604160045260246000fd5b7f43616e6e6f742063616c6c20666f7277617264657220697473656c6600000000600082015250565b6000611040601c83610ce7565b915061104b8261100a565b602082019050919050565b6000602082019050818103600083015261106f81611033565b9050919050565b7f4578706972656420646561646c696e6500000000000000000000000000000000600082015250565b60006110ac601083610ce7565b91506110b782611076565b602082019050919050565b600060208201905081810360008301526110db8161109f565b9050919050565b7f496e76616c6964206e6f6e636500000000000000000000000000000000000000600082015250565b6000611118600d83610ce7565b9150611123826110e2565b602082019050919050565b600060208201905081810360008301526111478161110b565b9050919050565b7f4e487b7100000000000000000000000000000000000000000000000000000000600052601160045260246000fd5b600061118882610c6d565b915061119383610c6d565b92508282019050808211156111ab576111aa61114e565b5b92915050565b600080fd5b600080fd5b600080fd5b600080833560016020038436030381126111dd576111dc6111b1565b5b80840192508235915067ffffffffffffffff8211156111ff576111fe6111b6565b5b60208301925060018202360383131561121b5761121a6111bb565b5b509250929050565b600081905092915050565b82818337600083830152505050565b60006112498385611223565b935061125683858461122e565b82840190509392505050565b600061126f82848661123d565b91508190509392505050565b600060c0820190506112906000830189610d85565b61129d6020830188610d6c565b6112aa6040830187610d6c565b6112b76060830186610d85565b6112c46080830185610c77565b6112d160a0830184610c77565b979650505050505050565b7f496e76616c6964207369676e6174757265000000000000000000000000000000600082015250565b6000611312601183610ce7565b915061131d826112dc565b602082019050919050565b6000602082019050818103600083015261134181611305565b9050919050565b7f5472616e73616374696f6e206661696c65640000000000000000000000000000600082015250565b600061137e601283610ce7565b915061138982611348565b602082019050919050565b600060208201905081810360008301526113ad81611371565b9050919050565b7f4e487b7100000000000000000000000000000000000000000000000000000000600052602260045260246000fd5b600060028204905060018216806113fb57607f821691505b60208210810361140e5761140d6113b4565b5b50919050565b7f4e487b7100000000000000000000000000000000000000000000000000000000600052602160045260246000fd5b7f45434453413a20696e76616c6964207369676e61747572650000000000000000600082015250565b6000611479601883610ce7565b915061148482611443565b602082019050919050565b600060208201905081810360008301526114a88161146c565b9050919050565b7f45434453413a20696e76616c6964207369676e6174757265206c656e67746800600082015250565b60006114e5601f83610ce7565b91506114f0826114af565b602082019050919050565b60006020820190508181036000830152611514816114d8565b9050919050565b7f45434453413a20696e76616c6964207369676e6174757265202773272076616c60008201527f7565000000000000000000000000000000000000000000000000000000000000602082015250565b6000611577602283610ce7565b91506115828261151b565b604082019050919050565b600060208201905081810360008301526115a68161156a565b9050919050565b600060a0820190506115c26000830188610d85565b6115cf6020830187610d85565b6115dc6040830186610d85565b6115e96060830185610c77565b6115f66080830184610d6c565b9695505050505050565b600060ff82169050919050565b61161681611600565b82525050565b60006080820190506116316000830187610d85565b61163e602083018661160d565b61164b6040830185610d85565b6116586060830184610d85565b9594505050505056fea2646970667358221220b2ddea902fb2ee3791652869d368a806b31effdaf5d741d5a9fdbf2ec16987eb64736f6c634300081c0033",
  "linkReferences": {},
  "deployedLinkReferences": {}
}