{
  "_format": "hh-sol-artifact-1",
  "contractName": "GaslessForwarder",
  "sourceName": "contracts/GaslessForwarder.sol",
  "abi": [
    {
      "inputs": [
        {
          "internalType": "address",
          "name": "user",
          "type": "address"
        },
        {
          "internalType": "address",
          "name": "target",
          "type": "address"
        },
        {
          "internalType": "bytes",
          "name": "data",
          "type": "bytes"
        },
        {
          "internalType": "bytes",
          "name": "signature",
          "type": "bytes"
        }
      ],
      "name": "execute",
      "outputs": [],
      "stateMutability": "nonpayable",
      "type": "function"
    },
    {
      "inputs": [
        {
          "internalType": "address",
          "name": "",
          "type": "address"
        }
      ],
      "name": "nonces",
      "outputs": [
        {
          "internalType": "uint256",
          "name": "",
          "type": "uint256"
        }
      ],
      "stateMutability": "view",
      "type": "function"
    }
  ],
  "bytecode": "0x6080604052348015600f57600080fd5b50610c498061001f6000396000f3fe608060405234801561001057600080fd5b50600436106100365760003560e01c80636a6aac641461003b5780637ecebe0014610057575b600080fd5b6100556004803603810190610050919061067a565b610087565b005b610071600480360381019061006c9190610721565b61029f565b60405161007e9190610767565b60405180910390f35b60008060008873ffffffffffffffffffffffffffffffffffffffff1673ffffffffffffffffffffffffffffffffffffffff16815260200190815260200160002060008154809291906100d8906107b1565b91905055905060008787878785466040516020016100fb969594939291906108a1565b604051602081830303815290604052805190602001209050600061017485858080601f016020809104026020016040519081016040528093929190818152602001838380828437600081840152601f19601f82011690508083019250505050505050610166846102b7565b6102ed90919063ffffffff16565b90508873ffffffffffffffffffffffffffffffffffffffff168173ffffffffffffffffffffffffffffffffffffffff16146101e4576040517f08c379a00000000000000000000000000000000000000000000000000000000081526004016101db9061095b565b60405180910390fd5b60008873ffffffffffffffffffffffffffffffffffffffff16888860405161020d92919061097b565b6000604051808303816000865af19150503d806000811461024a576040519150601f19603f3d011682016040523d82523d6000602084013e61024f565b606091505b5050905080610293576040517f08c379a000000000000000000000000000000000000000000000000000000000815260040161028a906109e0565b60405180910390fd5b50505050505050505050565b60006020528060005260406000206000915090505481565b60007f19457468657265756d205369676e6564204d6573736167653a0a33320000000060005281601c52603c6000209050919050565b60008060006102fc8585610314565b9150915061030981610365565b819250505092915050565b60008060418351036103555760008060006020860151925060408601519150606086015160001a9050610349878285856104cb565b9450945050505061035e565b60006002915091505b9250929050565b6000600481111561037957610378610a00565b5b81600481111561038c5761038b610a00565b5b03156104c857600160048111156103a6576103a5610a00565b5b8160048111156103b9576103b8610a00565b5b036103f9576040517f08c379a00000000000000000000000000000000000000000000000000000000081526004016103f090610a7b565b60405180910390fd5b6002600481111561040d5761040c610a00565b5b8160048111156104205761041f610a00565b5b03610460576040517f08c379a000000000000000000000000000000000000000000000000000000000815260040161045790610ae7565b60405180910390fd5b6003600481111561047457610473610a00565b5b81600481111561048757610486610a00565b5b036104c7576040517f08c379a00000000000000000000000000000000000000000000000000000000081526004016104be90610b79565b60405180910390fd5b5b50565b6000807f7fffffffffffffffffffffffffffffff5d576e7357a4501ddfe92f46681b20a08360001c11156105065760006003915091506105a4565b60006001878787876040516000815260200160405260405161052b9493929190610bce565b6020604051602081039080840390855afa15801561054d573d6000803e3d6000fd5b505050602060405103519050600073ffffffffffffffffffffffffffffffffffffffff168173ffffffffffffffffffffffffffffffffffffffff160361059b576000600192509250506105a4565b80600092509250505b94509492505050565b600080fd5b600080fd5b600073ffffffffffffffffffffffffffffffffffffffff82169050919050565b60006105e2826105b7565b9050919050565b6105f2816105d7565b81146105fd57600080fd5b50565b60008135905061060f816105e9565b92915050565b600080fd5b600080fd5b600080fd5b60008083601f84011261063a57610639610615565b5b8235905067ffffffffffffffff8111156106575761065661061a565b5b6020830191508360018202830111156106735761067261061f565b5b9250929050565b60008060008060008060808789031215610697576106966105ad565b5b60006106a589828a01610600565b96505060206106b689828a01610600565b955050604087013567ffffffffffffffff8111156106d7576106d66105b2565b5b6106e389828a01610624565b9450945050606087013567ffffffffffffffff811115610706576107056105b2565b5b61071289828a01610624565b92509250509295509295509295565b600060208284031215610737576107366105ad565b5b600061074584828501610600565b91505092915050565b6000819050919050565b6107618161074e565b82525050565b600060208201905061077c6000830184610758565b92915050565b7f4e487b7100000000000000000000000000000000000000000000000000000000600052601160045260246000fd5b60006107bc8261074e565b91507fffffffffffffffffffffffffffffffffffffffffffffffffffffffffffffffff82036107ee576107ed610782565b5b600182019050919050565b60008160601b9050919050565b6000610811826107f9565b9050919050565b600061082382610806565b9050919050565b61083b610836826105d7565b610818565b82525050565b600081905092915050565b82818337600083830152505050565b60006108678385610841565b935061087483858461084c565b82840190509392505050565b6000819050919050565b61089b6108968261074e565b610880565b82525050565b60006108ad828961082a565b6014820191506108bd828861082a565b6014820191506108ce82868861085b565b91506108da828561088a565b6020820191506108ea828461088a565b602082019150819050979650505050505050565b600082825260208201905092915050565b7f496e76616c6964207369676e6174757265000000000000000000000000000000600082015250565b60006109456011836108fe565b91506109508261090f565b602082019050919050565b6000602082019050818103600083015261097481610938565b9050919050565b600061098882848661085b565b91508190509392505050565b7f5472616e73616374696f6e206661696c65640000000000000000000000000000600082015250565b60006109ca6012836108fe565b91506109d582610994565b602082019050919050565b600060208201905081810360008301526109f9816109bd565b9050919050565b7f4e487b7100000000000000000000000000000000000000000000000000000000600052602160045260246000fd5b7f45434453413a20696e76616c6964207369676e61747572650000000000000000600082015250565b6000610a656018836108fe565b9150610a7082610a2f565b602082019050919050565b60006020820190508181036000830152610a9481610a58565b9050919050565b7f45434453413a20696e76616c6964207369676e6174757265206c656e67746800600082015250565b6000610ad1601f836108fe565b9150610adc82610a9b565b602082019050919050565b60006020820190508181036000830152610b0081610ac4565b9050919050565b7f45434453413a20696e76616c6964207369676e6174757265202773272076616c60008201527f7565000000000000000000000000000000000000000000000000000000000000602082015250565b6000610b636022836108fe565b9150610b6e82610b07565b604082019050919050565b60006020820190508181036000830152610b9281610b56565b9050919050565b6000819050919050565b610bac81610b99565b82525050565b600060ff82169050919050565b610bc881610bb2565b82525050565b6000608082019050610be36000830187610ba3565b610bf06020830186610bbf565b610bfd6040830185610ba3565b610c0a6060830184610ba3565b9594505050505056fea26469706673582212208e369ea49fb104413dbd42a59f32cb6c5bb16d1033c560995173175323737ba064736f6c634300081c0033",
  "linkReferences": {},
  "deployedLinkReferences": {}
}