{
  "_format": "hh-sol-artifact-1",
  "contractName": "GaslessRelayer",
  "sourceName": "contracts/GaslessRelayer.sol",
  "abi": [
    {
      "inputs": [],
      "stateMutability": "nonpayable",
      "type": "constructor"
    },
    {
      "inputs": [
        {
          "components": [
            {
              "internalType": "address",
              "name": "user",
              "type": "address"
            },
            {
              "internalType": "address",
              "name": "target",
              "type": "address"
            },
            {
              "internalType": "bytes",
              "name": "data",
              "type": "bytes"
            },
            {
              "internalType": "uint256",
              "name": "nonce",
              "type": "uint256"
            },
            {
              "internalType": "uint256",
              "name": "deadline",
              "type": "uint256"
            }
          ],
          "internalType": "struct GaslessRelayer.ForwardRequest",
          "name": "req",
          "type": "tuple"
        },
        {
          "internalType": "bytes",
          "name": "signature",
          "type": "bytes"
        }
      ],
      "name": "execute",
      "outputs": [],
      "stateMutability": "nonpayable",
      "type": "function"
    },
    {
      "inputs": [
        {
          "internalType": "address",
          "name": "",
          "type": "address"
        }
      ],
      "name": "nonces",
      "outputs": [
        {
          "internalType": "uint256",
          "name": "",
          "type": "uint256"
        }
      ],
      "stateMutability": "view",
      "type": "function"
    }
  ],
  "bytecode": "0x60a06040527f936113c2065b82b53ec6f1612c688637032a261d2cf6a129c2ea556c9bc31392608090815250348015603657600080fd5b50608051610da061005260003960006103610152610da06000f3fe608060405234801561001057600080fd5b50600436106100365760003560e01c80637ecebe001461003b578063bf2b6b351461006b575b600080fd5b61005560048036038101906100509190610675565b610087565b60405161006291906106bb565b60405180910390f35b6100856004803603810190610080919061075f565b61009f565b005b60006020528060005260406000206000915090505481565b42836080013510156100e6576040517f08c379a00000000000000000000000000000000000000000000000000000000081526004016100dd90610838565b60405180910390fd5b6000808460000160208101906100fc9190610675565b73ffffffffffffffffffffffffffffffffffffffff1673ffffffffffffffffffffffffffffffffffffffff1681526020019081526020016000205483606001351461017c576040517f08c379a0000000000000000000000000000000000000000000000000000000008152600401610173906108a4565b60405180910390fd5b6000808460000160208101906101929190610675565b73ffffffffffffffffffffffffffffffffffffffff1673ffffffffffffffffffffffffffffffffffffffff16815260200190815260200160002060008154809291906101dd906108f3565b919050555060006101ed84610355565b905060006101fc82858561042f565b90508460000160208101906102119190610675565b73ffffffffffffffffffffffffffffffffffffffff168173ffffffffffffffffffffffffffffffffffffffff161461027e576040517f08c379a000000000000000000000000000000000000000000000000000000000815260040161027590610987565b60405180910390fd5b60008560200160208101906102939190610675565b73ffffffffffffffffffffffffffffffffffffffff168680604001906102b991906109b6565b6040516102c7929190610a58565b6000604051808303816000865af19150503d8060008114610304576040519150601f19603f3d011682016040523d82523d6000602084013e610309565b606091505b505090508061034d576040517f08c379a000000000000000000000000000000000000000000000000000000000815260040161034490610abd565b60405180910390fd5b505050505050565b600061035f6104a0565b7f00000000000000000000000000000000000000000000000000000000000000008360000160208101906103939190610675565b8460200160208101906103a69190610675565b8580604001906103b691906109b6565b6040516103c4929190610a58565b6040518091039020866060013587608001356040516020016103eb96959493929190610b05565b60405160208183030381529060405280519060200120604051602001610412929190610bde565b604051602081830303815290604052805190602001209050919050565b60008060008061043f8686610536565b925092509250600187828585604051600081526020016040526040516104689493929190610c31565b6020604051602081039080840390855afa15801561048a573d6000803e3d6000fd5b5050506020604051035193505050509392505050565b60007f8b73c3c69bb8fe3d512ecc4cf759cc79239f7b179b0ffacaa9a75d522b39400f7fb937996070f27dbf036ae09d91df28ea9d28978616f2c34994df3ae3f18945ae7fc89efdaa54c0f20c7adf612882df0950f5a951637e0307cdcb4c672f298b8bc6463060405160200161051b959493929190610c76565b60405160208183030381529060405280519060200120905090565b600080600060418585905014610581576040517f08c379a000000000000000000000000000000000000000000000000000000000815260040161057890610d15565b60405180910390fd5b8435925060208501359150604085013560001a9050601b8160ff1610156105b257601b816105af9190610d35565b90505b601b8160ff1614806105c75750601c8160ff16145b610606576040517f08c379a00000000000000000000000000000000000000000000000000000000081526004016105fd90610987565b60405180910390fd5b9250925092565b600080fd5b600080fd5b600073ffffffffffffffffffffffffffffffffffffffff82169050919050565b600061064282610617565b9050919050565b61065281610637565b811461065d57600080fd5b50565b60008135905061066f81610649565b92915050565b60006020828403121561068b5761068a61060d565b5b600061069984828501610660565b91505092915050565b6000819050919050565b6106b5816106a2565b82525050565b60006020820190506106d060008301846106ac565b92915050565b600080fd5b600060a082840312156106f1576106f06106d6565b5b81905092915050565b600080fd5b600080fd5b600080fd5b60008083601f84011261071f5761071e6106fa565b5b8235905067ffffffffffffffff81111561073c5761073b6106ff565b5b60208301915083600182028301111561075857610757610704565b5b9250929050565b6000806000604084860312156107785761077761060d565b5b600084013567ffffffffffffffff81111561079657610795610612565b5b6107a2868287016106db565b935050602084013567ffffffffffffffff8111156107c3576107c2610612565b5b6107cf86828701610709565b92509250509250925092565b600082825260208201905092915050565b7f4578706972656400000000000000000000000000000000000000000000000000600082015250565b60006108226007836107db565b915061082d826107ec565b602082019050919050565b6000602082019050818103600083015261085181610815565b9050919050565b7f496e76616c6964206e6f6e636500000000000000000000000000000000000000600082015250565b600061088e600d836107db565b915061089982610858565b602082019050919050565b600060208201905081810360008301526108bd81610881565b9050919050565b7f4e487b7100000000000000000000000000000000000000000000000000000000600052601160045260246000fd5b60006108fe826106a2565b91507fffffffffffffffffffffffffffffffffffffffffffffffffffffffffffffffff82036109305761092f6108c4565b5b600182019050919050565b7f496e76616c6964207369676e6174757265000000000000000000000000000000600082015250565b60006109716011836107db565b915061097c8261093b565b602082019050919050565b600060208201905081810360008301526109a081610964565b9050919050565b600080fd5b600080fd5b600080fd5b600080833560016020038436030381126109d3576109d26109a7565b5b80840192508235915067ffffffffffffffff8211156109f5576109f46109ac565b5b602083019250600182023603831315610a1157610a106109b1565b5b509250929050565b600081905092915050565b82818337600083830152505050565b6000610a3f8385610a19565b9350610a4c838584610a24565b82840190509392505050565b6000610a65828486610a33565b91508190509392505050565b7f43616c6c206661696c6564000000000000000000000000000000000000000000600082015250565b6000610aa7600b836107db565b9150610ab282610a71565b602082019050919050565b60006020820190508181036000830152610ad681610a9a565b9050919050565b6000819050919050565b610af081610add565b82525050565b610aff81610637565b82525050565b600060c082019050610b1a6000830189610ae7565b610b276020830188610af6565b610b346040830187610af6565b610b416060830186610ae7565b610b4e60808301856106ac565b610b5b60a08301846106ac565b979650505050505050565b600081905092915050565b7f1901000000000000000000000000000000000000000000000000000000000000600082015250565b6000610ba7600283610b66565b9150610bb282610b71565b600282019050919050565b6000819050919050565b610bd8610bd382610add565b610bbd565b82525050565b6000610be982610b9a565b9150610bf58285610bc7565b602082019150610c058284610bc7565b6020820191508190509392505050565b600060ff82169050919050565b610c2b81610c15565b82525050565b6000608082019050610c466000830187610ae7565b610c536020830186610c22565b610c606040830185610ae7565b610c6d6060830184610ae7565b95945050505050565b600060a082019050610c8b6000830188610ae7565b610c986020830187610ae7565b610ca56040830186610ae7565b610cb260608301856106ac565b610cbf6080830184610af6565b9695505050505050565b7f496e76616c6964207369676e6174757265206c656e6774680000000000000000600082015250565b6000610cff6018836107db565b9150610d0a82610cc9565b602082019050919050565b60006020820190508181036000830152610d2e81610cf2565b9050919050565b6000610d4082610c15565b9150610d4b83610c15565b9250828201905060ff811115610d6457610d636108c4565b5b9291505056fea2646970667358221220246639e045bd15f152a1278f0a241da2c8c43ca0a75e3f50e3dc4817b653864164736f6c634300081c0033",
  "linkReferences": {},
  "deployedLinkReferences": {}
}